{
  "contractName": "Raffle",
  "abi": [
    {
      "constant": true,
      "inputs": [
        {
          "name": "",
          "type": "uint256"
        }
      ],
      "name": "donors",
      "outputs": [
        {
          "name": "",
          "type": "address"
        }
      ],
      "payable": false,
      "stateMutability": "view",
      "type": "function"
    },
    {
      "constant": true,
      "inputs": [],
      "name": "fundraiserGoal",
      "outputs": [
        {
          "name": "",
          "type": "uint256"
        }
      ],
      "payable": false,
      "stateMutability": "view",
      "type": "function"
    },
    {
      "constant": true,
      "inputs": [],
      "name": "fundraisedAmount",
      "outputs": [
        {
          "name": "",
          "type": "uint256"
        }
      ],
      "payable": false,
      "stateMutability": "view",
      "type": "function"
    },
    {
      "constant": true,
      "inputs": [],
      "name": "owner",
      "outputs": [
        {
          "name": "",
          "type": "address"
        }
      ],
      "payable": false,
      "stateMutability": "view",
      "type": "function"
    },
    {
      "constant": true,
      "inputs": [],
      "name": "winnableAmount",
      "outputs": [
        {
          "name": "",
          "type": "uint256"
        }
      ],
      "payable": false,
      "stateMutability": "view",
      "type": "function"
    },
    {
      "constant": true,
      "inputs": [],
      "name": "stage",
      "outputs": [
        {
          "name": "",
          "type": "uint8"
        }
      ],
      "payable": false,
      "stateMutability": "view",
      "type": "function"
    },
    {
      "constant": false,
      "inputs": [
        {
          "name": "newOwner",
          "type": "address"
        }
      ],
      "name": "transferOwnership",
      "outputs": [],
      "payable": false,
      "stateMutability": "nonpayable",
      "type": "function"
    },
    {
      "constant": true,
      "inputs": [],
      "name": "randomWinner",
      "outputs": [
        {
          "name": "",
          "type": "uint256"
        }
      ],
      "payable": false,
      "stateMutability": "view",
      "type": "function"
    },
    {
      "inputs": [
        {
          "name": "_fundraiserGoal",
          "type": "uint256"
        }
      ],
      "payable": false,
      "stateMutability": "nonpayable",
      "type": "constructor"
    },
    {
      "payable": true,
      "stateMutability": "payable",
      "type": "fallback"
    },
    {
      "anonymous": false,
      "inputs": [
        {
          "indexed": true,
          "name": "from",
          "type": "address"
        },
        {
          "indexed": false,
          "name": "donation",
          "type": "uint256"
        }
      ],
      "name": "Donation",
      "type": "event"
    },
    {
      "anonymous": false,
      "inputs": [
        {
          "indexed": true,
          "name": "winner",
          "type": "address"
        },
        {
          "indexed": false,
          "name": "winnings",
          "type": "uint256"
        }
      ],
      "name": "WinnerClaimed",
      "type": "event"
    },
    {
      "anonymous": false,
      "inputs": [
        {
          "indexed": true,
          "name": "winner",
          "type": "address"
        },
        {
          "indexed": false,
          "name": "winnings",
          "type": "uint256"
        }
      ],
      "name": "WinnerPicked",
      "type": "event"
    },
    {
      "anonymous": false,
      "inputs": [
        {
          "indexed": true,
          "name": "fundraiser",
          "type": "address"
        },
        {
          "indexed": false,
          "name": "fundraisedAmount",
          "type": "uint256"
        }
      ],
      "name": "FundraiserClaimed",
      "type": "event"
    },
    {
      "anonymous": false,
      "inputs": [
        {
          "indexed": true,
          "name": "previousOwner",
          "type": "address"
        },
        {
          "indexed": true,
          "name": "newOwner",
          "type": "address"
        }
      ],
      "name": "OwnershipTransferred",
      "type": "event"
    },
    {
      "constant": false,
      "inputs": [],
      "name": "startRaffle",
      "outputs": [
        {
          "name": "",
          "type": "bool"
        }
      ],
      "payable": false,
      "stateMutability": "nonpayable",
      "type": "function"
    },
    {
      "constant": false,
      "inputs": [],
      "name": "donate",
      "outputs": [
        {
          "name": "",
          "type": "bool"
        }
      ],
      "payable": true,
      "stateMutability": "payable",
      "type": "function"
    },
    {
      "constant": false,
      "inputs": [
        {
          "name": "myid",
          "type": "bytes32"
        },
        {
          "name": "result",
          "type": "string"
        }
      ],
      "name": "__callback",
      "outputs": [],
      "payable": false,
      "stateMutability": "nonpayable",
      "type": "function"
    },
    {
      "constant": false,
      "inputs": [
        {
          "name": "_queryId",
          "type": "bytes32"
        },
        {
          "name": "_result",
          "type": "string"
        },
        {
          "name": "_proof",
          "type": "bytes"
        }
      ],
      "name": "__callback",
      "outputs": [],
      "payable": false,
      "stateMutability": "nonpayable",
      "type": "function"
    },
    {
      "constant": false,
      "inputs": [],
      "name": "generateRandomNum",
      "outputs": [
        {
          "name": "",
          "type": "bool"
        }
      ],
      "payable": true,
      "stateMutability": "payable",
      "type": "function"
    },
    {
      "constant": false,
      "inputs": [],
      "name": "claimWinnings",
      "outputs": [
        {
          "name": "",
          "type": "bool"
        }
      ],
      "payable": false,
      "stateMutability": "nonpayable",
      "type": "function"
    },
    {
      "constant": false,
      "inputs": [],
      "name": "claimFundraisedAmount",
      "outputs": [
        {
          "name": "",
          "type": "bool"
        }
      ],
      "payable": false,
      "stateMutability": "nonpayable",
      "type": "function"
    }
  ],
  "bytecode": "0x6060604052600060065560006007556000600b60006101000a81548160ff0219169083600381111561002d57fe5b0217905550341561003d57600080fd5b6040516020806200464e83398101604052808051906020019091905050336000806101000a81548173ffffffffffffffffffffffffffffffffffffffff021916908373ffffffffffffffffffffffffffffffffffffffff160217905550806008819055505061459c80620000b26000396000f3006060604052600436106100db576000357c0100000000000000000000000000000000000000000000000000000000900463ffffffff168063242284f1146100e057806327dc297e1461010d57806338bbfa50146101775780634abfa1631461022457806356a21aaf146102875780637cbb6934146102b057806388c1706f146102d25780638da5cb5b146102fb578063a474c92614610350578063b401faf114610379578063c040e6b8146103a6578063dd6ae353146103dd578063ed88c68e1461040a578063f2fde38b1461042c578063f994709c14610465575b600080fd5b34156100eb57600080fd5b6100f361048e565b604051808215151515815260200191505060405180910390f35b341561011857600080fd5b61017560048080356000191690602001909190803590602001908201803590602001908080601f01602080910402602001604051908101604052809392919081815260200183838082843782019150505050505091905050610532565b005b341561018257600080fd5b61022260048080356000191690602001909190803590602001908201803590602001908080601f0160208091040260200160405190810160405280939291908181526020018383808284378201915050505050509190803590602001908201803590602001908080601f01602080910402602001604051908101604052809392919081815260200183838082843782019150505050505091905050610564565b005b341561022f57600080fd5b610245600480803590602001909190505061070a565b604051808273ffffffffffffffffffffffffffffffffffffffff1673ffffffffffffffffffffffffffffffffffffffff16815260200191505060405180910390f35b341561029257600080fd5b61029a610749565b6040518082815260200191505060405180910390f35b6102b861074f565b604051808215151515815260200191505060405180910390f35b34156102dd57600080fd5b6102e56107f0565b6040518082815260200191505060405180910390f35b341561030657600080fd5b61030e6107f6565b604051808273ffffffffffffffffffffffffffffffffffffffff1673ffffffffffffffffffffffffffffffffffffffff16815260200191505060405180910390f35b341561035b57600080fd5b61036361081b565b6040518082815260200191505060405180910390f35b341561038457600080fd5b61038c610821565b604051808215151515815260200191505060405180910390f35b34156103b157600080fd5b6103b9610968565b604051808260038111156103c957fe5b60ff16815260200191505060405180910390f35b34156103e857600080fd5b6103f061097b565b604051808215151515815260200191505060405180910390f35b610412610ae9565b604051808215151515815260200191505060405180910390f35b341561043757600080fd5b610463600480803573ffffffffffffffffffffffffffffffffffffffff16906020019091905050610c4e565b005b341561047057600080fd5b610478610da3565b6040518082815260200191505060405180910390f35b60008060009054906101000a900473ffffffffffffffffffffffffffffffffffffffff1673ffffffffffffffffffffffffffffffffffffffff163373ffffffffffffffffffffffffffffffffffffffff161415156104eb57600080fd5b60008060038111156104f957fe5b600b60009054906101000a900460ff16600381111561051457fe5b14151561052057600080fd5b61052a6001610da9565b600191505090565b610560828260006040518059106105465750595b9080825280601f01601f1916602001820160405250610564565b5050565b6000600280600381111561057457fe5b600b60009054906101000a900460ff16600381111561058f57fe5b14151561059b57600080fd5b6105a3610dcf565b73ffffffffffffffffffffffffffffffffffffffff163373ffffffffffffffffffffffffffffffffffffffff161415156105dc57600080fd5b60006105e98686866110e9565b60ff161415156105f857600080fd5b6106026003610da9565b600a805490509150836040518082805190602001908083835b602083101515610640578051825260208201915060208101905060208303925061061b565b6001836020036101000a038019825116818451168082178552505050505050905001915050604051809103902060019004600981905550600a60095481548110151561068857fe5b906000526020600020900160009054906101000a900473ffffffffffffffffffffffffffffffffffffffff1673ffffffffffffffffffffffffffffffffffffffff167f64791dbae5677392ba76761a5273633cec8f1d9d8cfe808da7bac6ef16a880be6007546040518082815260200191505060405180910390a25050505050565b600a8181548110151561071957fe5b90600052602060002090016000915054906101000a900473ffffffffffffffffffffffffffffffffffffffff1681565b60085481565b6000806000806000600280600381111561076557fe5b600b60009054906101000a900460ff16600381111561078057fe5b14151561078c57600080fd5b62030d403414151561079d57600080fd5b6107c960307f010000000000000000000000000000000000000000000000000000000000000002611320565b600494506000935062030d4092506107e2848685611676565b915060019550505050505090565b60065481565b6000809054906101000a900473ffffffffffffffffffffffffffffffffffffffff1681565b60075481565b6000600380600381111561083157fe5b600b60009054906101000a900460ff16600381111561084c57fe5b14151561085857600080fd5b3373ffffffffffffffffffffffffffffffffffffffff16600a60095481548110151561088057fe5b906000526020600020900160009054906101000a900473ffffffffffffffffffffffffffffffffffffffff1673ffffffffffffffffffffffffffffffffffffffff161415156108ce57600080fd5b3373ffffffffffffffffffffffffffffffffffffffff166108fc6007549081150290604051600060405180830381858888f19350505050151561091057600080fd5b3373ffffffffffffffffffffffffffffffffffffffff167f71afd1816b72faae4dced2e8c9ce8b5e21bae72e8353bb6c539a7f7c02d3c2e46007546040518082815260200191505060405180910390a2600191505090565b600b60009054906101000a900460ff1681565b60008060009054906101000a900473ffffffffffffffffffffffffffffffffffffffff1673ffffffffffffffffffffffffffffffffffffffff163373ffffffffffffffffffffffffffffffffffffffff161415156109d857600080fd5b60038060038111156109e657fe5b600b60009054906101000a900460ff166003811115610a0157fe5b141515610a0d57600080fd5b6000809054906101000a900473ffffffffffffffffffffffffffffffffffffffff1673ffffffffffffffffffffffffffffffffffffffff166108fc6006549081150290604051600060405180830381858888f193505050501515610a7057600080fd5b6000809054906101000a900473ffffffffffffffffffffffffffffffffffffffff1673ffffffffffffffffffffffffffffffffffffffff167f833321512683ac50c119f5c23548bc8443d7b8eeaae919a13fabb9132af2ef546006546040518082815260200191505060405180910390a2600191505090565b6000806001806003811115610afa57fe5b600b60009054906101000a900460ff166003811115610b1557fe5b141515610b2157600080fd5b600a8054806001018281610b359190614421565b9160005260206000209001600033909190916101000a81548173ffffffffffffffffffffffffffffffffffffffff021916908373ffffffffffffffffffffffffffffffffffffffff16021790555050610b98600234611be690919063ffffffff16565b9150610baf82600754611c0190919063ffffffff16565b600781905550610bca60075434611c1f90919063ffffffff16565b6006819055503373ffffffffffffffffffffffffffffffffffffffff167f5d8bc849764969eb1bcc6d0a2f55999d0167c1ccec240a4f39cf664ca9c4148e346040518082815260200191505060405180910390a2600854610c38600754600654611c0190919063ffffffff16565b1115610c4957610c486002610da9565b5b505090565b6000809054906101000a900473ffffffffffffffffffffffffffffffffffffffff1673ffffffffffffffffffffffffffffffffffffffff163373ffffffffffffffffffffffffffffffffffffffff16141515610ca957600080fd5b600073ffffffffffffffffffffffffffffffffffffffff168173ffffffffffffffffffffffffffffffffffffffff1614151515610ce557600080fd5b8073ffffffffffffffffffffffffffffffffffffffff166000809054906101000a900473ffffffffffffffffffffffffffffffffffffffff1673ffffffffffffffffffffffffffffffffffffffff167f8be0079c531659141344cd1fd0a4f28419497f9722a3daafe3b4186f6b6457e060405160405180910390a3806000806101000a81548173ffffffffffffffffffffffffffffffffffffffff021916908373ffffffffffffffffffffffffffffffffffffffff16021790555050565b60095481565b80600b60006101000a81548160ff02191690836003811115610dc757fe5b021790555050565b600080600160009054906101000a900473ffffffffffffffffffffffffffffffffffffffff1673ffffffffffffffffffffffffffffffffffffffff161480610e4157506000610e3f600160009054906101000a900473ffffffffffffffffffffffffffffffffffffffff16611c38565b145b15610e5257610e506000611c43565b505b600160009054906101000a900473ffffffffffffffffffffffffffffffffffffffff1673ffffffffffffffffffffffffffffffffffffffff166338cc48316000604051602001526040518163ffffffff167c0100000000000000000000000000000000000000000000000000000000028152600401602060405180830381600087803b1515610ee057600080fd5b6102c65a03f11515610ef157600080fd5b5050506040518051905073ffffffffffffffffffffffffffffffffffffffff16600260009054906101000a900473ffffffffffffffffffffffffffffffffffffffff1673ffffffffffffffffffffffffffffffffffffffff1614151561103b57600160009054906101000a900473ffffffffffffffffffffffffffffffffffffffff1673ffffffffffffffffffffffffffffffffffffffff166338cc48316000604051602001526040518163ffffffff167c0100000000000000000000000000000000000000000000000000000000028152600401602060405180830381600087803b1515610fdf57600080fd5b6102c65a03f11515610ff057600080fd5b50505060405180519050600260006101000a81548173ffffffffffffffffffffffffffffffffffffffff021916908373ffffffffffffffffffffffffffffffffffffffff1602179055505b600260009054906101000a900473ffffffffffffffffffffffffffffffffffffffff1673ffffffffffffffffffffffffffffffffffffffff1663c281d19e6000604051602001526040518163ffffffff167c0100000000000000000000000000000000000000000000000000000000028152600401602060405180830381600087803b15156110c957600080fd5b6102c65a03f115156110da57600080fd5b50505060405180519050905090565b6000807f4c0000000000000000000000000000000000000000000000000000000000000083600081518110151561111c57fe5b9060200101517f010000000000000000000000000000000000000000000000000000000000000090047f0100000000000000000000000000000000000000000000000000000000000000027effffffffffffffffffffffffffffffffffffffffffffffffffffffffffffff191614158061123157507f50000000000000000000000000000000000000000000000000000000000000008360018151811015156111c157fe5b9060200101517f010000000000000000000000000000000000000000000000000000000000000090047f0100000000000000000000000000000000000000000000000000000000000000027effffffffffffffffffffffffffffffffffffffffffffffffffffffffffffff191614155b806112da575060017f01000000000000000000000000000000000000000000000000000000000000000283600281518110151561126a57fe5b9060200101517f010000000000000000000000000000000000000000000000000000000000000090047f0100000000000000000000000000000000000000000000000000000000000000027effffffffffffffffffffffffffffffffffffffffffffffffffffffffffffff191614155b156112e85760019150611318565b6112fb8386866112f6611c54565b611cfc565b90506000151581151514156113135760029150611318565b600091505b509392505050565b6000600160009054906101000a900473ffffffffffffffffffffffffffffffffffffffff1673ffffffffffffffffffffffffffffffffffffffff1614806113915750600061138f600160009054906101000a900473ffffffffffffffffffffffffffffffffffffffff16611c38565b145b156113a2576113a06000611c43565b505b600160009054906101000a900473ffffffffffffffffffffffffffffffffffffffff1673ffffffffffffffffffffffffffffffffffffffff166338cc48316000604051602001526040518163ffffffff167c0100000000000000000000000000000000000000000000000000000000028152600401602060405180830381600087803b151561143057600080fd5b6102c65a03f1151561144157600080fd5b5050506040518051905073ffffffffffffffffffffffffffffffffffffffff16600260009054906101000a900473ffffffffffffffffffffffffffffffffffffffff1673ffffffffffffffffffffffffffffffffffffffff1614151561158b57600160009054906101000a900473ffffffffffffffffffffffffffffffffffffffff1673ffffffffffffffffffffffffffffffffffffffff166338cc48316000604051602001526040518163ffffffff167c0100000000000000000000000000000000000000000000000000000000028152600401602060405180830381600087803b151561152f57600080fd5b6102c65a03f1151561154057600080fd5b50505060405180519050600260006101000a81548173ffffffffffffffffffffffffffffffffffffffff021916908373ffffffffffffffffffffffffffffffffffffffff1602179055505b600260009054906101000a900473ffffffffffffffffffffffffffffffffffffffff1673ffffffffffffffffffffffffffffffffffffffff1663688dcfd7826040518263ffffffff167c010000000000000000000000000000000000000000000000000000000002815260040180827effffffffffffffffffffffffffffffffffffffffffffffffffffffffffffff19167effffffffffffffffffffffffffffffffffffffffffffffffffffffffffffff19168152602001915050600060405180830381600087803b151561165f57600080fd5b6102c65a03f1151561167057600080fd5b50505050565b600061168061444d565b61168861444d565b61169061444d565b600061169a61444d565b6116a261444d565b6116aa614461565b60006116b461444d565b60008c1180156116c5575060208c11155b15156116d057600080fd5b600a8d029c5060016040518059106116e55750595b9080825280601f01601f191660200182016040525098508b7f01000000000000000000000000000000000000000000000000000000000000000289600081518110151561172e57fe5b9060200101907effffffffffffffffffffffffffffffffffffffffffffffffffffffffffffff1916908160001a905350602060405180591061176d5750595b9080825280601f01601f1916602001820160405250975060206040518059106117935750595b9080825280601f01601f191660200182016040525096506117b261245f565b95506020885242411860014303401860208901526020875285602088015260206040518059106117df5750595b9080825280601f01601f191660200182016040525094508c6020860152600860405180591061180b5750595b9080825280601f01601f191660200182016040525093506118328560186008876000612779565b506080604051908101604052808981526020018a81526020018881526020018681525092506118976040805190810160405280600681526020017f72616e646f6d0000000000000000000000000000000000000000000000000000815250848d6127df565b915060086040518059106118a85750595b9080825280601f01601f1916602001820160405250905060208401517f0100000000000000000000000000000000000000000000000000000000000000810460278301537e01000000000000000000000000000000000000000000000000000000000000810460268301537d010000000000000000000000000000000000000000000000000000000000810460258301537c0100000000000000000000000000000000000000000000000000000000810460248301537b01000000000000000000000000000000000000000000000000000000810460238301537a010000000000000000000000000000000000000000000000000000810460228301537901000000000000000000000000000000000000000000000000008104602183015378010000000000000000000000000000000000000000000000008104602083015350611bd382828560016004811015156119fd57fe5b60200201516002876000600481101515611a1357fe5b60200201516000604051602001526040518082805190602001908083835b602083101515611a565780518252602082019150602081019050602083039250611a31565b6001836020036101000a03801982511681845116808217855250505050505090500191505060206040518083038160008661646e5a03f11515611a9857600080fd5b505060405180519050876002600481101515611ab057fe5b60200201516040518085805190602001908083835b602083101515611aea5780518252602082019150602081019050602083039250611ac5565b6001836020036101000a03801982511681845116808217855250505050505090500184805190602001908083835b602083101515611b3d5780518252602082019150602081019050602083039250611b18565b6001836020036101000a038019825116818451168082178552505050505050905001836000191660001916815260200182805190602001908083835b602083101515611b9e5780518252602082019150602081019050602083039250611b79565b6001836020036101000a0380198251168184511680821785525050505050509050019450505050506040518091039020612b71565b8199505050505050505050509392505050565b6000808284811515611bf457fe5b0490508091505092915050565b6000808284019050838110151515611c1557fe5b8091505092915050565b6000828211151515611c2d57fe5b818303905092915050565b6000813b9050919050565b6000611c4d612b99565b9050919050565b611c5c61448f565b60038054600181600116156101000203166002900480601f016020809104026020016040519081016040528092919081815260200182805460018160011615610100020316600290048015611cf25780601f10611cc757610100808354040283529160200191611cf2565b820191906000526020600020905b815481529060010190602001808311611cd557829003601f168201915b5050505050905090565b600080611d0761444d565b611d0f61444d565b611d1761444d565b611d1f61444d565b600080611d2a61444d565b602060028e6045815181101515611d3d57fe5b9060200101517f010000000000000000000000000000000000000000000000000000000000000090047f0100000000000000000000000000000000000000000000000000000000000000027f01000000000000000000000000000000000000000000000000000000000000009004016044010197506020604051805910611dc15750595b9080825280601f01601f19166020018201604052509650611de78d8960208a6000612779565b5060028a8d6000604051602001526040518083805190602001908083835b602083101515611e2a5780518252602082019150602081019050602083039250611e05565b6001836020036101000a03801982511681845116808217855250505050505090500182600019166000191681526020019250505060206040518083038160008661646e5a03f11515611e7b57600080fd5b505060405180519050604051808260001916600019168152602001915050604051809103902060001916876040518082805190602001908083835b602083101515611edb5780518252602082019150602081019050602083039250611eb6565b6001836020036101000a038019825116818451168082178552505050505050905001915050604051809103902060001916141515611f1c576000985061244f565b60028d600160498b0101815181101515611f3257fe5b9060200101517f010000000000000000000000000000000000000000000000000000000000000090047f0100000000000000000000000000000000000000000000000000000000000000027f0100000000000000000000000000000000000000000000000000000000000000900401604051805910611fae5750595b9080825280601f01601f19166020018201604052509550611fd78d60498a018851896000612779565b506120ef6002876000604051602001526040518082805190602001908083835b60208310151561201c5780518252602082019150602081019050602083039250611ff7565b6001836020036101000a03801982511681845116808217855250505050505090500191505060206040518083038160008661646e5a03f1151561205e57600080fd5b5050604051805190508c8f600860208d010181518110151561207c57fe5b9060200101517f010000000000000000000000000000000000000000000000000000000000000090047f0100000000000000000000000000000000000000000000000000000000000000027f0100000000000000000000000000000000000000000000000000000000000000900461302f565b15156120fe576000985061244f565b602960405180591061210d5750595b9080825280601f01601f191660200182016040525094506121368d60208a016029886000612779565b50604080518059106121455750595b9080825280601f01601f1916602001820160405250935060418651602960208b01010101925061217d8d604085036040876000612779565b506002846000604051602001526040518082805190602001908083835b6020831015156121bf578051825260208201915060208101905060208303925061219a565b6001836020036101000a03801982511681845116808217855250505050505090500191505060206040518083038160008661646e5a03f1151561220157600080fd5b505060405180519050915084826040518083805190602001908083835b602083101515612243578051825260208201915060208101905060208303925061221e565b6001836020036101000a038019825116818451168082178552505050505050905001826000191660001916815260200192505050604051809103902060001916600460008e60001916600019168152602001908152602001600020546000191614156122cd57600460008d60001916600019168152602001908152602001600020600090556122d6565b6000985061244f565b60496040518059106122e55750595b9080825280601f01601f1916602001820160405250905061230b8d896049846000612779565b506123a26002826000604051602001526040518082805190602001908083835b602083101515612350578051825260208201915060208101905060208303925061232b565b6001836020036101000a03801982511681845116808217855250505050505090500191505060206040518083038160008661646e5a03f1151561239257600080fd5b5050604051805190508786613147565b15156123b1576000985061244f565b6000151560056000846000191660001916815260200190815260200160002060009054906101000a900460ff1615151415612423576123f08d8461345e565b60056000846000191660001916815260200190815260200160002060006101000a81548160ff0219169083151502179055505b60056000836000191660001916815260200190815260200160002060009054906101000a900460ff1698505b5050505050505050949350505050565b600080600160009054906101000a900473ffffffffffffffffffffffffffffffffffffffff1673ffffffffffffffffffffffffffffffffffffffff1614806124d1575060006124cf600160009054906101000a900473ffffffffffffffffffffffffffffffffffffffff16611c38565b145b156124e2576124e06000611c43565b505b600160009054906101000a900473ffffffffffffffffffffffffffffffffffffffff1673ffffffffffffffffffffffffffffffffffffffff166338cc48316000604051602001526040518163ffffffff167c0100000000000000000000000000000000000000000000000000000000028152600401602060405180830381600087803b151561257057600080fd5b6102c65a03f1151561258157600080fd5b5050506040518051905073ffffffffffffffffffffffffffffffffffffffff16600260009054906101000a900473ffffffffffffffffffffffffffffffffffffffff1673ffffffffffffffffffffffffffffffffffffffff161415156126cb57600160009054906101000a900473ffffffffffffffffffffffffffffffffffffffff1673ffffffffffffffffffffffffffffffffffffffff166338cc48316000604051602001526040518163ffffffff167c0100000000000000000000000000000000000000000000000000000000028152600401602060405180830381600087803b151561266f57600080fd5b6102c65a03f1151561268057600080fd5b50505060405180519050600260006101000a81548173ffffffffffffffffffffffffffffffffffffffff021916908373ffffffffffffffffffffffffffffffffffffffff1602179055505b600260009054906101000a900473ffffffffffffffffffffffffffffffffffffffff1673ffffffffffffffffffffffffffffffffffffffff1663abaa5f3e6000604051602001526040518163ffffffff167c0100000000000000000000000000000000000000000000000000000000028152600401602060405180830381600087803b151561275957600080fd5b6102c65a03f1151561276a57600080fd5b50505060405180519050905090565b61278161444d565b600080600084870192508286511015151561279b57600080fd5b8760200191508460200190505b8688602001018210156127d057818901518082880152506020820191506020810190506127a8565b85935050505095945050505050565b60006127e96144a3565b6000600160009054906101000a900473ffffffffffffffffffffffffffffffffffffffff1673ffffffffffffffffffffffffffffffffffffffff16148061285a57506000612858600160009054906101000a900473ffffffffffffffffffffffffffffffffffffffff16611c38565b145b1561286b576128696000611c43565b505b600160009054906101000a900473ffffffffffffffffffffffffffffffffffffffff1673ffffffffffffffffffffffffffffffffffffffff166338cc48316000604051602001526040518163ffffffff167c0100000000000000000000000000000000000000000000000000000000028152600401602060405180830381600087803b15156128f957600080fd5b6102c65a03f1151561290a57600080fd5b5050506040518051905073ffffffffffffffffffffffffffffffffffffffff16600260009054906101000a900473ffffffffffffffffffffffffffffffffffffffff1673ffffffffffffffffffffffffffffffffffffffff16141515612a5457600160009054906101000a900473ffffffffffffffffffffffffffffffffffffffff1673ffffffffffffffffffffffffffffffffffffffff166338cc48316000604051602001526040518163ffffffff167c0100000000000000000000000000000000000000000000000000000000028152600401602060405180830381600087803b15156129f857600080fd5b6102c65a03f11515612a0957600080fd5b50505060405180519050600260006101000a81548173ffffffffffffffffffffffffffffffffffffffff021916908373ffffffffffffffffffffffffffffffffffffffff1602179055505b6004604051805910612a635750595b908082528060200260200182016040528015612a9957816020015b612a866144b7565b815260200190600190039081612a7e5790505b509050836000600481101515612aab57fe5b6020020151816000815181101515612abf57fe5b90602001906020020181905250836001600481101515612adb57fe5b6020020151816001815181101515612aef57fe5b90602001906020020181905250836002600481101515612b0b57fe5b6020020151816002815181101515612b1f57fe5b90602001906020020181905250836003600481101515612b3b57fe5b6020020151816003815181101515612b4f57fe5b90602001906020020181905250612b67858285613970565b9150509392505050565b8060046000846000191660001916815260200190815260200160002081600019169055505050565b600080612bb9731d3b2638a7cc9f2cb3d298a3da7a90b67e5506ed611c38565b1115612c5b57731d3b2638a7cc9f2cb3d298a3da7a90b67e5506ed600160006101000a81548173ffffffffffffffffffffffffffffffffffffffff021916908373ffffffffffffffffffffffffffffffffffffffff160217905550612c526040805190810160405280600b81526020017f6574685f6d61696e6e6574000000000000000000000000000000000000000000815250613ed8565b6001905061302c565b6000612c7a73c03a2615d5efaf5f49f60b7bb6583eaec212fdf1611c38565b1115612d1c5773c03a2615d5efaf5f49f60b7bb6583eaec212fdf1600160006101000a81548173ffffffffffffffffffffffffffffffffffffffff021916908373ffffffffffffffffffffffffffffffffffffffff160217905550612d136040805190810160405280600c81526020017f6574685f726f707374656e330000000000000000000000000000000000000000815250613ed8565b6001905061302c565b6000612d3b73b7a07bcf2ba2f2703b24c0691b5278999c59ac7e611c38565b1115612ddd5773b7a07bcf2ba2f2703b24c0691b5278999c59ac7e600160006101000a81548173ffffffffffffffffffffffffffffffffffffffff021916908373ffffffffffffffffffffffffffffffffffffffff160217905550612dd46040805190810160405280600981526020017f6574685f6b6f76616e0000000000000000000000000000000000000000000000815250613ed8565b6001905061302c565b6000612dfc73146500cfd35b22e4a392fe0adc06de1a1368ed48611c38565b1115612e9e5773146500cfd35b22e4a392fe0adc06de1a1368ed48600160006101000a81548173ffffffffffffffffffffffffffffffffffffffff021916908373ffffffffffffffffffffffffffffffffffffffff160217905550612e956040805190810160405280600b81526020017f6574685f72696e6b656279000000000000000000000000000000000000000000815250613ed8565b6001905061302c565b6000612ebd736f485c8bf6fc43ea212e93bbf8ce046c7f1cb475611c38565b1115612f2157736f485c8bf6fc43ea212e93bbf8ce046c7f1cb475600160006101000a81548173ffffffffffffffffffffffffffffffffffffffff021916908373ffffffffffffffffffffffffffffffffffffffff1602179055506001905061302c565b6000612f407320e12a1f859b3feae5fb2a0a32c18f5a65555bbf611c38565b1115612fa4577320e12a1f859b3feae5fb2a0a32c18f5a65555bbf600160006101000a81548173ffffffffffffffffffffffffffffffffffffffff021916908373ffffffffffffffffffffffffffffffffffffffff1602179055506001905061302c565b6000612fc37351efaf4c8b3c9afbd5ab9f4bbc82784ab6ef8faa611c38565b1115613027577351efaf4c8b3c9afbd5ab9f4bbc82784ab6ef8faa600160006101000a81548173ffffffffffffffffffffffffffffffffffffffff021916908373ffffffffffffffffffffffffffffffffffffffff1602179055506001905061302c565b600090505b90565b60008060006001915083855114151561304757600080fd5b600090505b8381101561313b57848181518110151561306257fe5b9060200101517f010000000000000000000000000000000000000000000000000000000000000090047f0100000000000000000000000000000000000000000000000000000000000000027effffffffffffffffffffffffffffffffffffffffffffffffffffffffffffff191686826020811015156130dd57fe5b1a7f0100000000000000000000000000000000000000000000000000000000000000027effffffffffffffffffffffffffffffffffffffffffffffffffffffffffffff191614151561312e57600091505b808060010191505061304c565b81925050509392505050565b600080600080600061315761444d565b600061316161444d565b60206040518059106131705750595b9080825280601f01601f1916602001820160405250925060208a600381518110151561319857fe5b9060200101517f010000000000000000000000000000000000000000000000000000000000000090047f0100000000000000000000000000000000000000000000000000000000000000027f0100000000000000000000000000000000000000000000000000000000000000900403600401915061321b8a836020866000612779565b9250602060405180591061322c5750595b9080825280601f01601f191660200182016040525090506022820191506132db8a60208c6001860381518110151561326057fe5b9060200101517f010000000000000000000000000000000000000000000000000000000000000090047f0100000000000000000000000000000000000000000000000000000000000000027f010000000000000000000000000000000000000000000000000000000000000090040384016020846000612779565b905060208301519450602081015193506132f88b601b8787613ef2565b80975081985050508573ffffffffffffffffffffffffffffffffffffffff16896040518082805190602001908083835b60208310151561334d5780518252602082019150602081019050602083039250613328565b6001836020036101000a03801982511681845116808217855250505050505090500191505060405180910390206001900473ffffffffffffffffffffffffffffffffffffffff1614156133a35760019750613450565b6133b08b601c8787613ef2565b80975081985050508573ffffffffffffffffffffffffffffffffffffffff16896040518082805190602001908083835b60208310151561340557805182526020820191506020810190506020830392506133e0565b6001836020036101000a03801982511681845116808217855250505050505090500191505060405180910390206001900473ffffffffffffffffffffffffffffffffffffffff161497505b505050505050509392505050565b60008061346961444d565b61347161444d565b61347961444d565b61348161444d565b61348961444d565b61349161444d565b61349961444d565b60028b60018c018151811015156134ac57fe5b9060200101517f010000000000000000000000000000000000000000000000000000000000000090047f0100000000000000000000000000000000000000000000000000000000000000027f01000000000000000000000000000000000000000000000000000000000000009004016040518059106135285750595b9080825280601f01601f1916602001820160405250965061354e8b8b89518a6000612779565b506040805180591061355d5750595b9080825280601f01601f191660200182016040525095506135848b60046040896000612779565b5060626040518059106135945750595b9080825280601f01601f1916602001820160405250945060017f0100000000000000000000000000000000000000000000000000000000000000028560008151811015156135de57fe5b9060200101907effffffffffffffffffffffffffffffffffffffffffffffffffffffffffffff1916908160001a9053506136208b60418c036041886001612779565b506040805190810160405280602081526020017ffd94fa71bc0ba10d39d464d0d8f465efeef0a2764e3887fcc9df41ded20f505c81525093506136698460006020886042612779565b506137006002866000604051602001526040518082805190602001908083835b6020831015156136ae5780518252602082019150602081019050602083039250613689565b6001836020036101000a03801982511681845116808217855250505050505090500191505060206040518083038160008661646e5a03f115156136f057600080fd5b5050604051805190508888613147565b97506000151588151514156137185760009850613962565b606060405190810160405280604081526020017f7fb956469c5c9b89840d55b43537e66a98dd4811ea0a27224272c2e5622911e881526020017f537a2f8e86a46baec82864e98dd01e9ccc2f8bc5dfc9cbe5a91a290498dd96e4815250925060426040518059106137865750595b9080825280601f01601f1916602001820160405250915060fe7f0100000000000000000000000000000000000000000000000000000000000000028260008151811015156137d057fe5b9060200101907effffffffffffffffffffffffffffffffffffffffffffffffffffffffffffff1916908160001a9053506138108b60036041856001612779565b5060028b604581518110151561382257fe5b9060200101517f010000000000000000000000000000000000000000000000000000000000000090047f0100000000000000000000000000000000000000000000000000000000000000027f010000000000000000000000000000000000000000000000000000000000000090040160405180591061389e5750595b9080825280601f01601f191660200182016040525090506138c58b60448351846000612779565b5061395c6002836000604051602001526040518082805190602001908083835b60208310151561390a57805182526020820191506020810190506020830392506138e5565b6001836020036101000a03801982511681845116808217855250505050505090500191505060206040518083038160008661646e5a03f1151561394c57600080fd5b5050604051805190508285613147565b97508798505b505050505050505092915050565b60008061397b61444d565b6000600160009054906101000a900473ffffffffffffffffffffffffffffffffffffffff1673ffffffffffffffffffffffffffffffffffffffff1614806139ec575060006139ea600160009054906101000a900473ffffffffffffffffffffffffffffffffffffffff16611c38565b145b156139fd576139fb6000611c43565b505b600160009054906101000a900473ffffffffffffffffffffffffffffffffffffffff1673ffffffffffffffffffffffffffffffffffffffff166338cc48316000604051602001526040518163ffffffff167c0100000000000000000000000000000000000000000000000000000000028152600401602060405180830381600087803b1515613a8b57600080fd5b6102c65a03f11515613a9c57600080fd5b5050506040518051905073ffffffffffffffffffffffffffffffffffffffff16600260009054906101000a900473ffffffffffffffffffffffffffffffffffffffff1673ffffffffffffffffffffffffffffffffffffffff16141515613be657600160009054906101000a900473ffffffffffffffffffffffffffffffffffffffff1673ffffffffffffffffffffffffffffffffffffffff166338cc48316000604051602001526040518163ffffffff167c0100000000000000000000000000000000000000000000000000000000028152600401602060405180830381600087803b1515613b8a57600080fd5b6102c65a03f11515613b9b57600080fd5b50505060405180519050600260006101000a81548173ffffffffffffffffffffffffffffffffffffffff021916908373ffffffffffffffffffffffffffffffffffffffff1602179055505b600260009054906101000a900473ffffffffffffffffffffffffffffffffffffffff1673ffffffffffffffffffffffffffffffffffffffff16632ef3accc87866000604051602001526040518363ffffffff167c01000000000000000000000000000000000000000000000000000000000281526004018080602001838152602001828103825284818151815260200191508051906020019080838360005b83811015613ca0578082015181840152602081019050613c85565b50505050905090810190601f168015613ccd5780820380516001836020036101000a031916815260200191505b509350505050602060405180830381600087803b1515613cec57600080fd5b6102c65a03f11515613cfd57600080fd5b505050604051805190509150833a02670de0b6b3a764000001821115613d295760006001029250613ecf565b613d3285613f36565b9050600260009054906101000a900473ffffffffffffffffffffffffffffffffffffffff1673ffffffffffffffffffffffffffffffffffffffff1663c55c1cb68360008985896000604051602001526040518663ffffffff167c0100000000000000000000000000000000000000000000000000000000028152600401808581526020018060200180602001848152602001838103835286818151815260200191508051906020019080838360005b83811015613dfc578082015181840152602081019050613de1565b50505050905090810190601f168015613e295780820380516001836020036101000a031916815260200191505b50838103825285818151815260200191508051906020019080838360005b83811015613e62578082015181840152602081019050613e47565b50505050905090810190601f168015613e8f5780820380516001836020036101000a031916815260200191505b5096505050505050506020604051808303818588803b1515613eb057600080fd5b6125ee5a03f11515613ec157600080fd5b505050506040518051905092505b50509392505050565b8060039080519060200190613eee9291906144cb565b5050565b60008060008060405188815287602082015286604082015285606082015260208160808360006001610bb8f192508051915050818193509350505094509492505050565b613f3e61444d565b600080613f496144a3565b6000806000613f5661444d565b60008060008b5199506000985089604051805910613f715750595b908082528060200260200182016040528015613fa757816020015b613f946144b7565b815260200190600190039081613f8c5790505b509750600096505b89871015614040578b87815181101515613fc557fe5b906020019060200201518888815181101515613fdd57fe5b906020019060200201819052506003601760018a8a815181101515613ffe57fe5b90602001906020020151510381151561401357fe5b04898981518110151561402257fe5b90602001906020020151510101890198508680600101975050613faf565b6000955060808a019450600160ff1689019850886040518059106140615750595b9080825280601f01601f191660200182016040525093505b85600160ff16111561412357847f010000000000000000000000000000000000000000000000000000000000000002866001811015156140b557fe5b1a7f01000000000000000000000000000000000000000000000000000000000000000284878151811015156140e657fe5b9060200101907effffffffffffffffffffffffffffffffffffffffffffffffffffffffffffff1916908160001a9053508580600101965050614079565b600096505b8987101561440f57605f7f010000000000000000000000000000000000000000000000000000000000000002848781518110151561416257fe5b9060200101907effffffffffffffffffffffffffffffffffffffffffffffffffffffffffffff1916908160001a9053508580600101965050600092505b87878151811015156141ad57fe5b90602001906020020151518310156143985760006017848115156141cd57fe5b0614156142d55760188389898151811015156141e557fe5b90602001906020020151510310156142175782888881518110151561420657fe5b90602001906020020151510361421a565b60175b91506040820191508590505b808603600160ff1611156142d457817f01000000000000000000000000000000000000000000000000000000000000000281870360018110151561426657fe5b1a7f010000000000000000000000000000000000000000000000000000000000000002848781518110151561429757fe5b9060200101907effffffffffffffffffffffffffffffffffffffffffffffffffffffffffffff1916908160001a9053508580600101965050614226565b5b87878151811015156142e357fe5b90602001906020020151838151811015156142fa57fe5b9060200101517f010000000000000000000000000000000000000000000000000000000000000090047f010000000000000000000000000000000000000000000000000000000000000002848781518110151561435357fe5b9060200101907effffffffffffffffffffffffffffffffffffffffffffffffffffffffffffff1916908160001a9053508580600101965050828060010193505061419f565b60ff7f01000000000000000000000000000000000000000000000000000000000000000284878151811015156143ca57fe5b9060200101907effffffffffffffffffffffffffffffffffffffffffffffffffffffffffffff1916908160001a90535085806001019650508680600101975050614128565b839a5050505050505050505050919050565b81548183558181151161444857818360005260206000209182019101614447919061454b565b5b505050565b602060405190810160405280600081525090565b6080604051908101604052806004905b6144796144b7565b8152602001906001900390816144715790505090565b602060405190810160405280600081525090565b602060405190810160405280600081525090565b602060405190810160405280600081525090565b828054600181600116156101000203166002900490600052602060002090601f016020900481019282601f1061450c57805160ff191683800117855561453a565b8280016001018555821561453a579182015b8281111561453957825182559160200191906001019061451e565b5b509050614547919061454b565b5090565b61456d91905b80821115614569576000816000905550600101614551565b5090565b905600a165627a7a7230582057577ccef594b6fe17acda3eebdca8c4a2e1cf78731a063b2dbc0544ecf7b2820029",
  "source": "pragma solidity 0.4.19;\n\nimport \"zeppelin-solidity/contracts/math/SafeMath.sol\";\nimport \"zeppelin-solidity/contracts/ownership/Ownable.sol\";\nimport \"./OraclizeAPI.sol\";\n\n/*\n  what do we need to do here?\n  need to keep list of contributors\n  need to select one at the end who will get winnings\n*/\n\ncontract Raffle is Ownable, usingOraclize {\n  using SafeMath for uint256;\n  uint256 public fundraisedAmount = 0;\n  uint256 public winnableAmount = 0;\n  uint256 public fundraiserGoal;\n  uint256 public randomWinner;\n\n  address[] public donors;\n\n  enum Stages {\n    PreStart,\n    Active,\n    Complete,\n    Finished\n  }\n\n  Stages public stage = Stages.PreStart;\n\n  event Donation(\n    address indexed from,\n    uint256 donation\n  );\n\n  event WinnerClaimed(\n    address indexed winner,\n    uint256 winnings\n  );\n\n  event WinnerPicked(\n    address indexed winner,\n    uint256 winnings\n  );\n\n  event FundraiserClaimed(\n    address indexed fundraiser,\n    uint256 fundraisedAmount\n  );\n\n  modifier atStage(Stages _stage) {\n    require(stage == _stage);\n    _;\n  }\n\n  function Raffle(uint256 _fundraiserGoal)\n    public\n  {\n    fundraiserGoal = _fundraiserGoal;\n  }\n\n  function startRaffle()\n    external\n    onlyOwner\n    atStage(Stages.PreStart)\n    returns (bool)\n  {\n    enterStage(Stages.Active);\n    return true;\n  }\n\n  function enterStage(Stages _stage)\n    private\n  {\n    stage = _stage;\n  }\n\n  function donate()\n    external\n    payable\n    atStage(Stages.Active)\n    returns (bool)\n  {\n    donors.push(msg.sender);\n    uint256 winningsIncrement = msg.value.div(2);\n    winnableAmount = winnableAmount.add(winningsIncrement);\n    fundraisedAmount = msg.value.sub(winnableAmount);\n    Donation(msg.sender, msg.value);\n    if(fundraisedAmount.add(winnableAmount) > fundraiserGoal) {\n      enterStage(Stages.Complete);\n    }\n  }\n\n  // callback function used to get random winner (uses oraclize)\n  function __callback(bytes32 _queryId, string _result, bytes _proof)\n    public\n    atStage(Stages.Complete)\n  {\n    require(msg.sender == oraclize_cbAddress());\n\n    // if 0 proof, verification failed...\n    if(oraclize_randomDS_proofVerify__returnCode(\n      _queryId,\n      _result,\n      _proof) != 0\n    ) {\n      revert();\n    } else {\n      enterStage(Stages.Finished);\n      uint256 _maxRange = donors.length;\n      randomWinner = uint(keccak256(_result));\n      WinnerPicked(donors[randomWinner], winnableAmount);\n    }\n  }\n\n  // used only after fundraiser complete, anyone can call\n  // caller needs to pay for gas costs of generating random number\n  function generateRandomNum()\n    public\n    payable\n    atStage(Stages.Complete)\n    returns (bool)\n  {\n    require(msg.value == 2e5);\n    oraclize_setProof(proofType_Ledger);\n    uint256 _randomByteCount = 4;\n    uint256 _delay = 0;\n    uint256 _callbackGas = 2e5;\n    bytes32 _queryId = oraclize_newRandomDSQuery(\n      _delay,\n      _randomByteCount,\n      _callbackGas\n    );\n    return true;\n  }\n\n  function claimWinnings()\n    external\n    atStage(Stages.Finished)\n    returns (bool)\n  {\n    require(donors[randomWinner] == msg.sender);\n    msg.sender.transfer(winnableAmount);\n    WinnerClaimed(msg.sender, winnableAmount);\n    return true;\n  }\n\n  function claimFundraisedAmount()\n    external\n    onlyOwner\n    atStage(Stages.Finished)\n    returns (bool)\n  {\n    owner.transfer(fundraisedAmount);\n    FundraiserClaimed(owner, fundraisedAmount);\n    return true;\n  }\n\n  // do not allow anyone to send money to this contract without donate()\n  function()\n    external\n    payable\n  {\n    revert();\n  }\n}\n",
  "sourcePath": "/Users/tovarishfin/dev/personal/raffle/contracts/Raffle.sol",
  "compiler": {
    "name": "solc",
    "version": "0.4.19+commit.c4cbbb05.Emscripten.clang"
  },
  "schemaVersion": "2.0.0",
  "updatedAt": "2018-03-20T16:21:59.559Z"
}